{
  "_format": "hh-sol-artifact-1",
  "contractName": "NFTMarketplace",
  "sourceName": "contracts/NFTMarketplace.sol",
  "abi": [
    {
      "inputs": [
        {
          "internalType": "address",
          "name": "nftAddress",
          "type": "address"
        }
      ],
      "name": "AlreadyListed",
      "type": "error"
    },
    {
      "inputs": [
        {
          "internalType": "address",
          "name": "nftAddress",
          "type": "address"
        }
      ],
      "name": "ItemNotForSale",
      "type": "error"
    },
    {
      "inputs": [],
      "name": "NoProceeds",
      "type": "error"
    },
    {
      "inputs": [],
      "name": "NotApproved",
      "type": "error"
    },
    {
      "inputs": [],
      "name": "NotApprovedForMarketplace",
      "type": "error"
    },
    {
      "inputs": [
        {
          "internalType": "address",
          "name": "nftAddress",
          "type": "address"
        }
      ],
      "name": "NotListed",
      "type": "error"
    },
    {
      "inputs": [],
      "name": "NotOwner",
      "type": "error"
    },
    {
      "inputs": [],
      "name": "PriceMustBeAboveZero",
      "type": "error"
    },
    {
      "inputs": [
        {
          "internalType": "address",
          "name": "nftAddress",
          "type": "address"
        },
        {
          "internalType": "uint256",
          "name": "price",
          "type": "uint256"
        }
      ],
      "name": "PriceNotMet",
      "type": "error"
    },
    {
      "anonymous": false,
      "inputs": [
        {
          "indexed": true,
          "internalType": "address",
          "name": "buyer",
          "type": "address"
        },
        {
          "indexed": true,
          "internalType": "address",
          "name": "nftAddress",
          "type": "address"
        },
        {
          "indexed": false,
          "internalType": "uint256",
          "name": "price",
          "type": "uint256"
        },
        {
          "indexed": false,
          "internalType": "uint256",
          "name": "fraction",
          "type": "uint256"
        }
      ],
      "name": "LogItemBought",
      "type": "event"
    },
    {
      "anonymous": false,
      "inputs": [
        {
          "indexed": true,
          "internalType": "address",
          "name": "seller",
          "type": "address"
        },
        {
          "indexed": true,
          "internalType": "address",
          "name": "nftAddress",
          "type": "address"
        }
      ],
      "name": "LogItemCanceled",
      "type": "event"
    },
    {
      "anonymous": false,
      "inputs": [
        {
          "indexed": true,
          "internalType": "address",
          "name": "seller",
          "type": "address"
        },
        {
          "indexed": true,
          "internalType": "address",
          "name": "nftAddress",
          "type": "address"
        },
        {
          "indexed": false,
          "internalType": "uint256",
          "name": "price",
          "type": "uint256"
        }
      ],
      "name": "LogItemListed",
      "type": "event"
    },
    {
      "inputs": [
        {
          "internalType": "address",
          "name": "nftAddress",
          "type": "address"
        },
        {
          "internalType": "uint256",
          "name": "fraction",
          "type": "uint256"
        }
      ],
      "name": "buyItem",
      "outputs": [],
      "stateMutability": "payable",
      "type": "function"
    },
    {
      "inputs": [
        {
          "internalType": "address",
          "name": "nftAddress",
          "type": "address"
        }
      ],
      "name": "cancelListing",
      "outputs": [],
      "stateMutability": "nonpayable",
      "type": "function"
    },
    {
      "inputs": [
        {
          "internalType": "address",
          "name": "nftAddress",
          "type": "address"
        }
      ],
      "name": "getListing",
      "outputs": [
        {
          "components": [
            {
              "internalType": "uint256",
              "name": "price",
              "type": "uint256"
            },
            {
              "internalType": "address",
              "name": "seller",
              "type": "address"
            }
          ],
          "internalType": "struct NFTMarketplace.Listing",
          "name": "",
          "type": "tuple"
        }
      ],
      "stateMutability": "view",
      "type": "function"
    },
    {
      "inputs": [
        {
          "internalType": "address",
          "name": "seller",
          "type": "address"
        }
      ],
      "name": "getProceeds",
      "outputs": [
        {
          "internalType": "uint256",
          "name": "",
          "type": "uint256"
        }
      ],
      "stateMutability": "view",
      "type": "function"
    },
    {
      "inputs": [
        {
          "internalType": "address",
          "name": "nftAddress",
          "type": "address"
        },
        {
          "internalType": "uint256",
          "name": "amount",
          "type": "uint256"
        },
        {
          "internalType": "uint256",
          "name": "price",
          "type": "uint256"
        },
        {
          "internalType": "uint256",
          "name": "deadline",
          "type": "uint256"
        },
        {
          "internalType": "uint8",
          "name": "v",
          "type": "uint8"
        },
        {
          "internalType": "bytes32",
          "name": "r",
          "type": "bytes32"
        },
        {
          "internalType": "bytes32",
          "name": "s",
          "type": "bytes32"
        }
      ],
      "name": "listItemWithPermit",
      "outputs": [],
      "stateMutability": "nonpayable",
      "type": "function"
    },
    {
      "inputs": [],
      "name": "numListings",
      "outputs": [
        {
          "internalType": "uint256",
          "name": "",
          "type": "uint256"
        }
      ],
      "stateMutability": "view",
      "type": "function"
    },
    {
      "inputs": [],
      "name": "withdrawProceeds",
      "outputs": [],
      "stateMutability": "nonpayable",
      "type": "function"
    }
  ],
  "bytecode": "0x608060405234801561001057600080fd5b50610a3e806100206000396000f3fe6080604052600436106100705760003560e01c80637fc41de11161004e5780637fc41de1146101665780639038e6931461018657806390af04c11461019b5780639f37092a146101b057600080fd5b8063084af0b21461007557806330cfeda9146101005780634724da6f14610144575b600080fd5b34801561008157600080fd5b506100d76100903660046108cd565b604080518082018252600080825260209182018190526001600160a01b03938416815260018083529083902083518085019094528054845201549092169181019190915290565b60408051825181526020928301516001600160a01b031692810192909252015b60405180910390f35b34801561010c57600080fd5b5061013661011b3660046108cd565b6001600160a01b031660009081526002602052604090205490565b6040519081526020016100f7565b34801561015057600080fd5b5061016461015f3660046108cd565b6101c3565b005b34801561017257600080fd5b506101646101813660046108ef565b610341565b34801561019257600080fd5b506101646105af565b3480156101a757600080fd5b50600054610136565b6101646101be36600461095b565b610697565b80336040516370a0823160e01b81526001600160a01b03828116600483015283916000918316906370a0823190602401602060405180830381865afa158015610210573d6000803e3d6000fd5b505050506040513d601f19601f820116820180604052508101906102349190610985565b116102725760405162461bcd60e51b81526020600482015260096024820152682737ba1037bbb732b960b91b60448201526064015b60405180910390fd5b6001600160a01b03808516600090815260016020818152604092839020835180850190945280548085529201549093169282019290925285916102e45760405162461bcd60e51b815260206004820152600a602482015269139bdd081b1a5cdd195960b21b6044820152606401610269565b6001600160a01b038616600081815260016020819052604080832083815590910180546001600160a01b03191690555133917fc9669b8a48512518c3136892d2cd2ed45b7b7aa8190bfc0a3750292f3583906591a3505050505050565b6001600160a01b0380881660009081526001602081815260409283902083518085019094528054808552920154909316928201929092528891156103b85760405162461bcd60e51b815260206004820152600e60248201526d105b1c9958591e481b1a5cdd195960921b6044820152606401610269565b886001600160a01b03811663d505accf336040516001600160e01b031960e084901b1681526001600160a01b039091166004820152306024820152604481018c9052606481018a905260ff8916608482015260a4810188905260c4810187905260e401600060405180830381600087803b15801561043557600080fd5b505af1158015610449573d6000803e3d6000fd5b5050505088816001600160a01b031663dd62ed3e6104643390565b6040516001600160e01b031960e084901b1681526001600160a01b039091166004820152306024820152604401602060405180830381865afa1580156104ae573d6000803e3d6000fd5b505050506040513d601f19601f820116820180604052508101906104d29190610985565b10156104f15760405163c19f17a960e01b815260040160405180910390fd5b60405180604001604052808981526020016105093390565b6001600160a01b039081169091528b81166000818152600160208181526040909220855181559490910151930180546001600160a01b03191693909216929092179055336001600160a01b03167ff3f0bb188e969a2f3f035c0aa4309dc7801440971970e4e18f11afb37a72d0168a60405161058791815260200190565b60405180910390a360008054908061059e836109b4565b919050555050505050505050505050565b33600090815260026020526040902054806105fa5760405162461bcd60e51b815260206004820152600b60248201526a4e6f2070726f636565647360a81b6044820152606401610269565b336000818152600260205260408082208290555190919083908381818185875af1925050503d806000811461064b576040519150601f19603f3d011682016040523d82523d6000602084013e610650565b606091505b50509050806106935760405162461bcd60e51b815260206004820152600f60248201526e151c985b9cd9995c8819985a5b1959608a1b6044820152606401610269565b5050565b6001600160a01b03808316600090815260016020818152604092839020835180850190945280548085529201549093169282019290925283916107095760405162461bcd60e51b815260206004820152600a602482015269139bdd081b1a5cdd195960b21b6044820152606401610269565b6001600160a01b038085166000908152600160208181526040928390208351808501909452805480855292015490931692820192909252903410156107805760405162461bcd60e51b815260206004820152600d60248201526c141c9a58d9481b9bdd081b595d609a1b6044820152606401610269565b6020808201516001600160a01b0316600090815260029091526040812080543492906107ad9084906109cd565b90915550506001600160a01b03851660008181526001602081815260408320928355910180546001600160a01b03191690558201516323b872dd90336040516001600160e01b031960e085901b1681526001600160a01b03928316600482015291166024820152604481018790526064016020604051808303816000875af115801561083d573d6000803e3d6000fd5b505050506040513d601f19601f8201168201806040525081019061086191906109e6565b50805160408051918252602082018690526001600160a01b0387169133917f4e4294ab7366efb224569d5817c1b3959188f54db37c216798e96643ca3d034f910160405180910390a35050505050565b80356001600160a01b03811681146108c857600080fd5b919050565b6000602082840312156108df57600080fd5b6108e8826108b1565b9392505050565b600080600080600080600060e0888a03121561090a57600080fd5b610913886108b1565b9650602088013595506040880135945060608801359350608088013560ff8116811461093e57600080fd5b9699959850939692959460a0840135945060c09093013592915050565b6000806040838503121561096e57600080fd5b610977836108b1565b946020939093013593505050565b60006020828403121561099757600080fd5b5051919050565b634e487b7160e01b600052601160045260246000fd5b6000600182016109c6576109c661099e565b5060010190565b808201808211156109e0576109e061099e565b92915050565b6000602082840312156109f857600080fd5b815180151581146108e857600080fdfea2646970667358221220757ed355b37a8dc4ed896d30f8965a7ac27c111add3c5d713c41439cc778319964736f6c63430008140033",
  "linkReferences": {},
  "deployedLinkReferences": {}
}