{
  "_format": "hh-sol-artifact-1",
  "contractName": "NFTMarketplace",
  "sourceName": "contracts/NFTMarketplace.sol",
  "abi": [
    {
      "inputs": [
        {
          "internalType": "address",
          "name": "nftAddress",
          "type": "address"
        }
      ],
      "name": "AlreadyListed",
      "type": "error"
    },
    {
      "inputs": [
        {
          "internalType": "address",
          "name": "nftAddress",
          "type": "address"
        }
      ],
      "name": "ItemNotForSale",
      "type": "error"
    },
    {
      "inputs": [],
      "name": "NoProceeds",
      "type": "error"
    },
    {
      "inputs": [],
      "name": "NotApproved",
      "type": "error"
    },
    {
      "inputs": [],
      "name": "NotApprovedForMarketplace",
      "type": "error"
    },
    {
      "inputs": [
        {
          "internalType": "address",
          "name": "nftAddress",
          "type": "address"
        }
      ],
      "name": "NotListed",
      "type": "error"
    },
    {
      "inputs": [],
      "name": "NotOwner",
      "type": "error"
    },
    {
      "inputs": [],
      "name": "PriceMustBeAboveZero",
      "type": "error"
    },
    {
      "inputs": [
        {
          "internalType": "address",
          "name": "nftAddress",
          "type": "address"
        },
        {
          "internalType": "uint256",
          "name": "price",
          "type": "uint256"
        }
      ],
      "name": "PriceNotMet",
      "type": "error"
    },
    {
      "anonymous": false,
      "inputs": [
        {
          "indexed": true,
          "internalType": "address",
          "name": "buyer",
          "type": "address"
        },
        {
          "indexed": true,
          "internalType": "address",
          "name": "nftAddress",
          "type": "address"
        },
        {
          "indexed": false,
          "internalType": "uint256",
          "name": "price",
          "type": "uint256"
        },
        {
          "indexed": false,
          "internalType": "uint256",
          "name": "fraction",
          "type": "uint256"
        }
      ],
      "name": "LogItemBought",
      "type": "event"
    },
    {
      "anonymous": false,
      "inputs": [
        {
          "indexed": true,
          "internalType": "address",
          "name": "seller",
          "type": "address"
        },
        {
          "indexed": true,
          "internalType": "address",
          "name": "nftAddress",
          "type": "address"
        }
      ],
      "name": "LogItemCanceled",
      "type": "event"
    },
    {
      "anonymous": false,
      "inputs": [
        {
          "indexed": true,
          "internalType": "address",
          "name": "seller",
          "type": "address"
        },
        {
          "indexed": true,
          "internalType": "address",
          "name": "nftAddress",
          "type": "address"
        },
        {
          "indexed": false,
          "internalType": "uint256",
          "name": "price",
          "type": "uint256"
        }
      ],
      "name": "LogItemListed",
      "type": "event"
    },
    {
      "inputs": [
        {
          "internalType": "address",
          "name": "nftAddress",
          "type": "address"
        },
        {
          "internalType": "uint256",
          "name": "fraction",
          "type": "uint256"
        }
      ],
      "name": "buyItem",
      "outputs": [],
      "stateMutability": "payable",
      "type": "function"
    },
    {
      "inputs": [
        {
          "internalType": "address",
          "name": "nftAddress",
          "type": "address"
        }
      ],
      "name": "cancelListing",
      "outputs": [],
      "stateMutability": "nonpayable",
      "type": "function"
    },
    {
      "inputs": [
        {
          "internalType": "address",
          "name": "nftAddress",
          "type": "address"
        }
      ],
      "name": "getListing",
      "outputs": [
        {
          "components": [
            {
              "internalType": "uint256",
              "name": "price",
              "type": "uint256"
            },
            {
              "internalType": "address",
              "name": "seller",
              "type": "address"
            }
          ],
          "internalType": "struct NFTMarketplace.Listing",
          "name": "",
          "type": "tuple"
        }
      ],
      "stateMutability": "view",
      "type": "function"
    },
    {
      "inputs": [
        {
          "internalType": "address",
          "name": "seller",
          "type": "address"
        }
      ],
      "name": "getProceeds",
      "outputs": [
        {
          "internalType": "uint256",
          "name": "",
          "type": "uint256"
        }
      ],
      "stateMutability": "view",
      "type": "function"
    },
    {
      "inputs": [
        {
          "internalType": "address",
          "name": "nftAddress",
          "type": "address"
        },
        {
          "internalType": "uint256",
          "name": "amount",
          "type": "uint256"
        },
        {
          "internalType": "uint256",
          "name": "price",
          "type": "uint256"
        },
        {
          "internalType": "uint256",
          "name": "deadline",
          "type": "uint256"
        },
        {
          "internalType": "uint8",
          "name": "v",
          "type": "uint8"
        },
        {
          "internalType": "bytes32",
          "name": "r",
          "type": "bytes32"
        },
        {
          "internalType": "bytes32",
          "name": "s",
          "type": "bytes32"
        }
      ],
      "name": "listItemWithPermit",
      "outputs": [],
      "stateMutability": "nonpayable",
      "type": "function"
    },
    {
      "inputs": [],
      "name": "numListings",
      "outputs": [
        {
          "internalType": "uint256",
          "name": "",
          "type": "uint256"
        }
      ],
      "stateMutability": "view",
      "type": "function"
    },
    {
      "inputs": [
        {
          "internalType": "address",
          "name": "nftAddress",
          "type": "address"
        },
        {
          "internalType": "uint256",
          "name": "newPrice",
          "type": "uint256"
        }
      ],
      "name": "updateListing",
      "outputs": [],
      "stateMutability": "nonpayable",
      "type": "function"
    },
    {
      "inputs": [],
      "name": "withdrawProceeds",
      "outputs": [],
      "stateMutability": "nonpayable",
      "type": "function"
    }
  ],
  "bytecode": "0x608060405234801561001057600080fd5b50610c0d806100206000396000f3fe60806040526004361061007b5760003560e01c80637fc41de11161004e5780637fc41de1146101915780639038e693146101b157806390af04c1146101c65780639f37092a146101db57600080fd5b8063084af0b21461008057806326aa0db61461010b57806330cfeda91461012d5780634724da6f14610171575b600080fd5b34801561008c57600080fd5b506100e261009b366004610a78565b604080518082018252600080825260209182018190526001600160a01b03938416815260018083529083902083518085019094528054845201549092169181019190915290565b60408051825181526020928301516001600160a01b031692810192909252015b60405180910390f35b34801561011757600080fd5b5061012b610126366004610a9a565b6101ee565b005b34801561013957600080fd5b50610163610148366004610a78565b6001600160a01b031660009081526002602052604090205490565b604051908152602001610102565b34801561017d57600080fd5b5061012b61018c366004610a78565b6103ad565b34801561019d57600080fd5b5061012b6101ac366004610ac4565b610509565b3480156101bd57600080fd5b5061012b610777565b3480156101d257600080fd5b50600054610163565b61012b6101e9366004610a9a565b61085f565b6001600160a01b038083166000908152600160208181526040928390208351808501909452805480855292015490931692820192909252839161024c5760405162461bcd60e51b815260040161024390610b30565b60405180910390fd5b83336040516370a0823160e01b81526001600160a01b03828116600483015283916000918316906370a0823190602401602060405180830381865afa158015610299573d6000803e3d6000fd5b505050506040513d601f19601f820116820180604052508101906102bd9190610b54565b116102f65760405162461bcd60e51b81526020600482015260096024820152682737ba1037bbb732b960b91b6044820152606401610243565b600086116103465760405162461bcd60e51b815260206004820152601860248201527f5072696365206d7573742062652061626f7665207a65726f00000000000000006044820152606401610243565b6001600160a01b0387166000818152600160205260409020879055336001600160a01b03167ff3f0bb188e969a2f3f035c0aa4309dc7801440971970e4e18f11afb37a72d0168860405161039c91815260200190565b60405180910390a350505050505050565b80336040516370a0823160e01b81526001600160a01b03828116600483015283916000918316906370a0823190602401602060405180830381865afa1580156103fa573d6000803e3d6000fd5b505050506040513d601f19601f8201168201806040525081019061041e9190610b54565b116104575760405162461bcd60e51b81526020600482015260096024820152682737ba1037bbb732b960b91b6044820152606401610243565b6001600160a01b03808516600090815260016020818152604092839020835180850190945280548085529201549093169282019290925285916104ac5760405162461bcd60e51b815260040161024390610b30565b6001600160a01b038616600081815260016020819052604080832083815590910180546001600160a01b03191690555133917fc9669b8a48512518c3136892d2cd2ed45b7b7aa8190bfc0a3750292f3583906591a3505050505050565b6001600160a01b0380881660009081526001602081815260409283902083518085019094528054808552920154909316928201929092528891156105805760405162461bcd60e51b815260206004820152600e60248201526d105b1c9958591e481b1a5cdd195960921b6044820152606401610243565b886001600160a01b03811663d505accf336040516001600160e01b031960e084901b1681526001600160a01b039091166004820152306024820152604481018c9052606481018a905260ff8916608482015260a4810188905260c4810187905260e401600060405180830381600087803b1580156105fd57600080fd5b505af1158015610611573d6000803e3d6000fd5b5050505088816001600160a01b031663dd62ed3e61062c3390565b6040516001600160e01b031960e084901b1681526001600160a01b039091166004820152306024820152604401602060405180830381865afa158015610676573d6000803e3d6000fd5b505050506040513d601f19601f8201168201806040525081019061069a9190610b54565b10156106b95760405163c19f17a960e01b815260040160405180910390fd5b60405180604001604052808981526020016106d13390565b6001600160a01b039081169091528b81166000818152600160208181526040909220855181559490910151930180546001600160a01b03191693909216929092179055336001600160a01b03167ff3f0bb188e969a2f3f035c0aa4309dc7801440971970e4e18f11afb37a72d0168a60405161074f91815260200190565b60405180910390a360008054908061076683610b83565b919050555050505050505050505050565b33600090815260026020526040902054806107c25760405162461bcd60e51b815260206004820152600b60248201526a4e6f2070726f636565647360a81b6044820152606401610243565b336000818152600260205260408082208290555190919083908381818185875af1925050503d8060008114610813576040519150601f19603f3d011682016040523d82523d6000602084013e610818565b606091505b505090508061085b5760405162461bcd60e51b815260206004820152600f60248201526e151c985b9cd9995c8819985a5b1959608a1b6044820152606401610243565b5050565b6001600160a01b03808316600090815260016020818152604092839020835180850190945280548085529201549093169282019290925283916108b45760405162461bcd60e51b815260040161024390610b30565b6001600160a01b0380851660009081526001602081815260409283902083518085019094528054808552920154909316928201929092529034101561092b5760405162461bcd60e51b815260206004820152600d60248201526c141c9a58d9481b9bdd081b595d609a1b6044820152606401610243565b6020808201516001600160a01b031660009081526002909152604081208054349290610958908490610b9c565b90915550506001600160a01b03851660008181526001602081815260408320928355910180546001600160a01b03191690558201516323b872dd90336040516001600160e01b031960e085901b1681526001600160a01b03928316600482015291166024820152604481018790526064016020604051808303816000875af11580156109e8573d6000803e3d6000fd5b505050506040513d601f19601f82011682018060405250810190610a0c9190610bb5565b50805160408051918252602082018690526001600160a01b0387169133917f4e4294ab7366efb224569d5817c1b3959188f54db37c216798e96643ca3d034f910160405180910390a35050505050565b80356001600160a01b0381168114610a7357600080fd5b919050565b600060208284031215610a8a57600080fd5b610a9382610a5c565b9392505050565b60008060408385031215610aad57600080fd5b610ab683610a5c565b946020939093013593505050565b600080600080600080600060e0888a031215610adf57600080fd5b610ae888610a5c565b9650602088013595506040880135945060608801359350608088013560ff81168114610b1357600080fd5b9699959850939692959460a0840135945060c09093013592915050565b6020808252600a9082015269139bdd081b1a5cdd195960b21b604082015260600190565b600060208284031215610b6657600080fd5b5051919050565b634e487b7160e01b600052601160045260246000fd5b600060018201610b9557610b95610b6d565b5060010190565b80820180821115610baf57610baf610b6d565b92915050565b600060208284031215610bc757600080fd5b81518015158114610a9357600080fdfea264697066735822122022b766149666e4151637f8bd0e5854ea4a0f19f7e85329ef2209b40268d1325d64736f6c63430008140033",
  "linkReferences": {},
  "deployedLinkReferences": {}
}